:020000040800F2
:1000000000A0002071020008A1060008A306000855
:10001000A5060008A7060008A906000800000000C1
:10002000000000000000000000000000AB06000817
:10003000AD06000800000000AF060008B106000889
:10004000C1020008C1020008C1020008C102000884
:10005000C1020008C1020008C1020008C102000874
:10006000C1020008C1020008C1020008C102000864
:10007000C1020008C1020008C1020008C102000854
:10008000C1020008C1020008C1020008C102000844
:10009000B9060008C1020008C1020008C102000838
:1000A000C1020008C1020008C1020008C102000824
:1000B000C1020008C1020008C1020008C102000814
:1000C000C1020008C1020008C1020008C102000804
:1000D000C1020008C1020008C1020008C1020008F4
:1000E000C1020008C1020008C1020008C1020008E4
:1000F000C1020008C1020008C1020008C1020008D4
:10010000000000000000000000000000C102000824
:10011000C1020008C1020008C1020008C1020008B3
:10012000C1020008C1020008C1020008C1020008A3
:10013000C1020008C1020008000000000000000029
:10014000C1020008C1020008C1020008000000004E
:10015000000000000000000000000000000000009F
:100160000000000000000000C1020008C1020008F9
:10017000C1020008000000000000000000000000B4
:0801800000000000C1020008AC
:1001900010B5054C237833B9044B13B10448AFF3C1
:1001A00000800123237010BD7402002000000000B5
:1001B0005860000808B5034B1BB103490348AFF36F
:1001C000008008BD00000000780200205860000890
:1001D00001F0FF01102A2BDB10F0070F08D010F8F8
:1001E000013B013A8B422DD010F0070F42B3F6D1FC
:1001F000F0B441EA012141EA014122F007047FF015
:1002000000070023F0E80256083C85EA010586EA6B
:10021000010685FA47F5A3FA87F586FA47F6A5FAA7
:1002200087F68EB9EED1F0BC01F0FF0102F00702B3
:1002300032B110F8013B013A83EA010313B1F8D15E
:100240000020704701387047002D06BF354603383F
:10025000073815F0010F07D1013015F4807F02BF78
:10026000013015F4C03F0130F0BC0138704700BFC9
:10027000DFF834D0002103E00C4B5B5843500431CD
:100280000B480C4B42189A42F6D30B4A02E000236B
:1002900042F8043B094B9A42F9D300F047FC05F0C1
:1002A000A9FA00F0F5F8FEE700A000207C61000844
:1002B000000000207402002074020020501600206C
:1002C000FEE7000008B503460B4A126842B10A4A2D
:1002D000106803446A46934206D8074A136008BD73
:1002E000054A06491160F2E705F07EFA0C23036027
:1002F0004FF0FF30F3E700BF9002002050160020BF
:1003000070B58AB000240594069407940894099463
:10031000294B5A6942F400125A615A6902F40012D8
:100320000092009A5A6942F400225A615A6902F412
:1003300000220192019A5A6942F480025A615A6974
:1003400002F480020292029A5A6942F400325A611F
:100350005A6902F400320392039A5A6942F48022E5
:100360005A615B6903F480230493049B134D224676
:100370004FF60871284601F0CBFA37230593104B4E
:100380000693079405A9284601F07AF94FF60873F9
:100390000593012606960794089405A9284601F0BE
:1003A0006FF905960694079405A94FF0904001F067
:1003B00067F90AB070BD00BF00100240001000488D
:1003C0000000111010B5002404E0204600F03CFFAE
:1003D0000134E4B2072C07D8094B1B78A342F4D0B0
:1003E000204600F041FFF3E7054B1B78062B03D8AE
:1003F0000133034A137010BD014B00221A70FAE753
:1004000098020020FEE7000000B59FB020220021E6
:1004100015A805F013FA00210F9110911191129176
:1004200013913C22684605F009FA02231493012235
:100430001892102219921B934FF420131D9314A8A5
:1004400002F060FCE0B90F230F9302231093002306
:1004500011934FF480621292139301210FA802F0BE
:10046000ABFF78B9094B0093002307934FF4800347
:100470000E93684603F072F830B91FB05DF804FBC4
:10048000FFF7C0FFFFF7BEFFFFF7BCFF2000020031
:1004900000B58BB001F052F8FFF7B6FFFFF730FF61
:1004A00000F0D8FF08B1FFF7ADFF00F0F7FF08B18B
:1004B000FFF7A8FF00F008F900230593ADF8183006
:1004C00005A800F0E1FF07A801F00AF8BDF9142023
:1004D000BDF91630BDF91810114CDDED097AFDEEAD
:1004E000E77ACDED037ADDED087AFDEEE77ACDED22
:1004F000027ADDED077AFDEEE77ACDED017A009123
:100500000849204605F0A2F9C1B2074B59702046B0
:1005100000F02AF90A2001F035F8FFF753FFCBE786
:10052000CC050020C06000089802002000B583B010
:100530000C4B9A6942F001029A619A6902F0010239
:100540000092009ADA6942F08052DA61DB6903F0C6
:1005500080530193019B072001F028F803B05DF858
:1005600004FB00BF0010024010B588B000230393C5
:1005700004930593069307930268134B9A4201D0A4
:1005800008B010BD114C636943F480236361636953
:1005900003F480230193019BC0230393122304934C
:1005A00001230593032306930423079303A9084813
:1005B00001F066F8E36943F40013E361E36903F4CF
:1005C00000130293029BDBE700540040001002403E
:1005D0000004004802680A4B9A4200D0704710B5E8
:1005E000084AD36923F40013D361074C4021204605
:1005F00001F010F98021204601F00CF910BD00BF78
:1006000000540040001002400004004800B589B0CA
:100610000023039304930593069307930268144BF6
:100620009A4202D009B05DF804FB03F560439A6971
:1006300042F480529A619A6902F480520192019ABE
:100640005A6942F400325A615B6903F40033029341
:10065000029BE023039302230493032306930523C1
:10066000079303A94FF0904001F00AF8DAE700BFC2
:100670000030014008B50268074B9A4200D008BD1F
:10068000064A936923F480539361E0214FF0904030
:1006900001F0C0F8F3E700BF003001400010024055
:1006A0007047FEE7FEE7FEE7FEE7704770477047DA
:1006B00008B500F055FF08BD08B5024802F031F951
:1006C00008BD00BF5C13002008B500220F49104888
:1006D00004F09CFB70B90F490D4804F0AEFB60B903
:1006E0000D490B4804F04AFB50B9094804F0ACFB33
:1006F00048B908BDFFF786FEEDE7FFF783FEEFE799
:10070000FFF780FEF1E7FFF77DFEF2E744000020EF
:10071000C8060020D80100200000002000207047FB
:100720000020704710B5054C0146204604F035FB0B
:10073000204604F052FB002010BD00BFC806002078
:1007400010B5064C00220649204604F01EFB054960
:10075000204604F022FB002010BD00BFC806002088
:10076000740D00208C090020094BD3F8B832D3F85F
:1007700014320BB10120704710B50A460146044CF3
:10078000204604F002FB204604F00DFB10BD00BF24
:10079000C806002012230B8000487047100000207C
:1007A00004230B800048704724000020002393425C
:1007B00016D230B40BE0373401F8134000015C006E
:1007C000013400250D550133DBB2934206D2040FEC
:1007D000092CF0D8303401F81340EFE730BC7047F3
:1007E0007047000038B50B4B186804331C6804339D
:1007F0001B68C01800D138BD074D082205F11A0149
:10080000FFF7D4FF042205F12A012046FFF7CEFFAF
:10081000F1E700BFACF7FF1F1000002008B51A2356
:100820000B80FFF7DFFF014808BD00BF2800002054
:1008300008B50A4628B10549054804F077FF034882
:1008400008BD0249024804F071FFF8E75C1100207E
:10085000F860000810B5044C0A462146034804F02D
:1008600065FF204610BD00BF5C110020106100082C
:1008700008B50A4628B10549054804F057FF034862
:1008800008BD0249024804F051FFF8E75C1100205E
:100890002461000808B50A4628B10549054804F056
:1008A00045FF034808BD0249024804F03FFFF8E74E
:1008B0005C1100203061000818B1022803D002202A
:1008C00070470020704701207047000010B588B0C5
:1008D0000023039304930593069307930268174B31
:1008E0009A4201D008B010BD154C636943F400333F
:1008F0006361636903F400330193019B4FF4C053B8
:10090000039302230493032306930E23079303A95F
:100910004FF0904000F0B4FEE36943F40003E3615C
:10092000E36903F400030293029B002211461420A2
:1009300000F04EFE142000F07FFED3E7005C004084
:100940000010024008B500F52C71D0F8E80204F060
:1009500094FA08BD08B501EB8102D3000344D3F833
:100960007C21D0F8E80204F0B5FA08BD08B501EB27
:100970008102D3000344DA6BD0F8E80204F0F3FA02
:1009800008BD08B5D0F8E80204F095FB08BD10B525
:1009900004468368022B01D0FFF734FD0121D4F80F
:1009A000E80204F071FBD4F8E80204F045FB10BD46
:1009B00010B50446D0F8E80204F069FBA36923B13E
:1009C000024A136943F00603136110BD00ED00E015
:1009D00008B5D0F8E80204F063FB08BD10B5044682
:1009E0001D48C0F8E842C4F8C0021C4B036008234D
:1009F000436002238360036100238361036201F08B
:100A000099FB30BB182300221146D4F8C00202F033
:100A10005AF9582300228021D4F8C00202F053F979
:100A2000C02300228121D4F8C00202F04CF94FF417
:100A3000887300220121D4F8C00202F044F94FF477
:100A4000807300228221D4F8C00202F03CF9002019
:100A500010BDFFF7D7FCD5E75C130020005C004019
:100A600008B5D0F8C00201F0C9FBFFF725FF08BDAB
:100A700010B51C4613462246D0F8C00201F0FBFF19
:100A8000FFF71AFF10BD08B5D0F8C00202F02DF82C
:100A9000FFF712FF08BD08B5D0F8C00202F0A5F8B4
:100AA000FFF70AFF08BD08B5D0F8C00202F0D1F880
:100AB000FFF702FF08BDD0F8C03211F0800F08D157
:100AC00001F07F0101EB8101CA00134493F86A0130
:100AD000704701F07F01013101EB8101CA0013442D
:100AE0009878704708B5D0F8C00201F006FFFFF70C
:100AF000E3FE08BD08B5D0F8C00202F051F8FFF7D8
:100B0000DBFE08BD08B5D0F8C00202F01FF8FFF701
:100B1000D3FE08BD08B5D0F8C00202F038F808BD11
:100B2000004870479C02002070477047054BD3F87F
:100B3000882042F47002C3F888204FF000629A6067
:100B4000704700BF00ED00E0704730B583B0054648
:100B500000238DF8073000F097FB02AC04F8015D2C
:100B600001222021204600F0CDFB2D0A8DF80750F0
:100B700001222321204600F0C5FB03B030BD00B5A3
:100B800083B002AB03F8010D01222021184600F0CA
:100B9000B9FB03B05DF804FB00B583B000F074FB53
:100BA00001220F210DF1070000F0CEFB9DF8070098
:100BB00003B05DF804FB00B583B0012224210DF1E0
:100BC000070000F0C1FB9DF8073063F07F038DF84C
:100BD0000730012224210DF1070000F093FB03B040
:100BE0005DF804FB10B582B0044600238DF8073091
:100BF0008DF80630012230210DF1070000F0A4FB32
:100C0000012222210DF1060000F09EFB9DF8073025
:100C1000E4B203F080038DF807309DF8063003F04E
:100C2000DF031C438DF80640012230210DF107003F
:100C300000F068FB012222210DF1060000F062FBAA
:100C400002B010BD10B582B00446012222210DF180
:100C5000070000F079FB54B1012C0ED19DF807304C
:100C600003F0F70343F008038DF8073005E09DF823
:100C7000073063F07F038DF80730012222210DF148
:100C8000070000F03FFB02B010BD10B582B0044673
:100C9000012222210DF1070000F056FB44B1012C86
:100CA0000CD19DF8073023F008038DF8073005E0DC
:100CB0009DF8073003F07F038DF8073001222221D1
:100CC0000DF1070000F01EFB02B010BD10B582B0A0
:100CD0000446012221210DF1070000F035FB9DF8AB
:100CE000070000F0C00020438DF8070001222121F9
:100CF0000DF1070000F006FB02B010BD10B582B088
:100D00000446012224210DF1070000F01DFB9DF88F
:100D1000070000F0EF0020438DF807000122242196
:100D20000DF1070000F0EEFA02B010BD10B586B06C
:100D3000044600230493ADF814300293ADF80C3050
:100D400006A800F8113D0122232100F0FDFA062239
:100D5000282104A800F0F8FA9DF8073013F0400F9E
:100D60001FD000222FE05300591C06A8014411F89F
:100D7000080C06A90B4413F8081C01EB002123F80A
:100D8000101C0132022AEEDD9DF8073003F030031B
:100D9000102B1BD0202B1CD0F3B19FED1B7A00230E
:100DA0002DE00022EEE7530006A9194411F8080CC3
:100DB00001330DF1180C634413F8083C03EB0023D6
:100DC00021F8103C0132022AEDDDDDE79FED0F7ABC
:100DD000E5E79FED0F7AE2E79FED0E7ADFE706AADF
:100DE00002EB430232F9102C07EE902A04EB830247
:100DF000F8EEE77A67EE877AC2ED007A0133022BCC
:100E0000EDDD06B010BD00BF0000000000008C4109
:100E100000008C4200000C41704710B5044600F001
:100E2000B7FAE2B22021322000F00CFB002223218D
:100E3000322000F007FB10BD08B500F0A9FA0F2121
:100E4000322000F003FB08BD08B52421322000F059
:100E5000FDFA60F07F02D2B22421322000F0F2FAD3
:100E600008BD10B504462121322000F0EFFA00F051
:100E70000C0222432121322000F0E4FA10BD10B50B
:100E800004462121322000F0E1FA00F0F70222436B
:100E90002121322000F0D6FA10BD30B587B00446CB
:100EA0002321322000F0D2FA05468DF80C002421CF
:100EB000322000F0CBFA2821322000F0C7FA8DF85A
:100EC00004002921322000F0C1FA8DF805002A2102
:100ED000322000F0BBFA8DF806002B21322000F002
:100EE000B5FA8DF807002C21322000F0AFFA8DF80A
:100EF00008002D21322000F0A9FA8DF8090015F024
:100F0000400F22D0002135E051004B1C06A80344BD
:100F100013F9143C9BB21B029BB2014411F9140C4F
:100F200013FA80F321F8083C0132D2B2022AEBD93D
:100F30009DF80C3003F03003202B1ED0302B1ED038
:100F4000102B1ED00121002328E00022EEE74A00EA
:100F500006AB981810F9143C9BB21B029BB20132ED
:100F600006AD2A4412F9142C13FA82F320F8083C37
:100F70000131C9B20229EAD9DAE70421E3E70C21F9
:100F8000E1E70221DFE706AA02EB430232F9082C6F
:100F900012FB01F224F813200133DBB2022BF2D949
:100FA00007B030BD10B504462121322000F04EFAC2
:100FB00000F0FB0222432121322000F043FA10BD51
:100FC00010B504462221322000F040FA40EA040223
:100FD000D2B22221322000F035FA10BD10B50446FD
:100FE0003821322000F032FA40EA0402D2B238212D
:100FF000322000F027FA0A223A21322000F022FAA9
:1010000005223B21322000F01DFA05223C2132202E
:1010100000F018FA32223D21104600F013FA10BDFC
:1010200008B500F0E7F98020FFF7CAFF0420FFF7BA
:10103000B9FF1020FFF7D2FF08BD000000B589B04E
:10104000124B9A6942F480529A619A6902F4805272
:101050000192019A5A6942F400325A615B6903F4C1
:1010600000330293029BE0230393022304930023A3
:101070000593032306930523079303A94FF090409C
:1010800000F0FEFA09B05DF804FB00BF001002405A
:1010900010B588B0104C636943F4802363616369C1
:1010A00003F480230193019BC02303930223049341
:1010B0000593032306930423079303A9074800F02D
:1010C000DFFAE36943F40013E361E36903F4001317
:1010D0000293029B08B010BD0010024000040048BB
:1010E00010B5114802F00FFE00B110BD0E4C0F4BB1
:1010F00023601823E3610023A36063612361A3627B
:101100000722E2624FF4E062E26023624FF4007271
:10111000A26163624FF4827363602046FFF78EFF23
:10112000204602F016FCE0E7BC040020003001403D
:1011300008B5034802F06AFCFFF7D2FF08BD00BF04
:10114000BC04002000B587B08DF80F0006AA00236C
:1011500002F8013D084B1B68009301230DF10F01BC
:10116000064802F069FC20B99DF8170007B05DF849
:1011700004FBFFF7DDFFF7E7CC000020BC040020F4
:1011800010B50D4800F04AFF00B110BD0B4C0C4BE0
:1011900063663223E3660123236700236367A36743
:1011A000C4F88030C4F8843064342046FFF770FF00
:1011B000204600F013FDE8E720050020BC040020D5
:1011C0000054004008B5034800F066FDFFF7D8FF63
:1011D00008BD00BF2005002010B586B006AC04F89D
:1011E000012D084B5B6802930123019300940A468A
:1011F0000146054800F069FD08B906B010BDFFF7CB
:10120000E1FFFAE7CC0000202005002000B587B000
:1012100006AA002302F8013D094B5B6802930123F3
:10122000019300920A460146064800F021FE20B9CB
:101230009DF8170007B05DF804FBFFF7C3FFF7E761
:10124000CC0000202005002008B5054B03EB8003EF
:101250000122044931F81010986800F059FB08BDCC
:10126000CC0000208860000808B5054B03EB800324
:101270000022044931F81010986800F049FB08BDBD
:10128000CC000020886000082DE9F04389B01B4C99
:10129000636943F400136361636903F4001301930A
:1012A000019B4FF00808CDF80C804FF00109CDF8F4
:1012B00010900026059603270697114D03A928468E
:1012C00000F0DEF94A464146284600F021FB6369FA
:1012D00043F400136361636903F400130293029BF8
:1012E000039704960697059603A9284600F0C8F9C7
:1012F000FFF7F6FE09B0BDE8F08300BF0010024022
:101300000010004870B505460E461446012A01D962
:1013100041F04006002208210A4800F0F9FA304660
:10132000FFF710FF05E015F8010BFFF70BFF013C7D
:10133000A4B2002CF7D101220821024800F0E8FAFB
:1013400070BD00BF0010004870B505461446012A64
:101350000AD941F0C006002208210C4800F0D8FA52
:101360003046FFF7EFFE09E041F08006F3E700208A
:10137000FFF7E8FE05F8010B013CA4B2002CF6D102
:1013800001220821014800F0C3FA70BD0010004896
:1013900070B588B0154B5A6942F400125A615A6907
:1013A00002F400120192019A5A6942F400125A6141
:1013B0005B6903F400130293029B0423039300244C
:1013C0000494059403260696094D03A9284600F0C7
:1013D00057F93023039304940696059403A92846ED
:1013E00000F04EF9FFF7CCFE08B070BD00100240CF
:1013F0000010004810B586B00F4B5A6942F4001235
:101400005A615B6903F400130093009B302301933E
:101410000A4B0293032304930024039401A9084870
:1014200000F02EF922460F210A2000F0D1F80A2000
:1014300000F002F906B010BD0010024000001110CB
:101440000010004808B5FFF7C7FE08BD08B5FFF754
:10145000DDFE08BD10B50A4B9B68984733280CD1B8
:10146000084C074B23601B6840F6470098472368E9
:101470009B6A90209847002010BD0120FCE700BF28
:10148000980000206C05002008B5034B1B681B6BFF
:1014900003B1984708BD00BF6C05002010B50E4B86
:1014A0009B689847D42806D00B4B9B689847D52853
:1014B00001D001200FE0094C074B23601B6841F26B
:1014C0003F00984723689B6A002098472368DB6A9F
:1014D00010209847002010BD6400002070050020F7
:1014E00008B5034B1B681B6B03B1984708BD00BFD1
:1014F0007005002010B504460E4B18784FF47A732F
:10150000B3FBF0F30C4A1068B0FBF3F000F0A2F864
:1015100068B90F2C01D901200AE0002221464FF0C2
:10152000FF3000F055F8034B5C60002000E0012024
:1015300010BD00BFF80000206000002008B5074A79
:10154000136843F010031360032000F02FF800200D
:10155000FFF7D0FFFEF7EAFF002008BD00200240A1
:10156000034A1168034B1B780B441360704700BF9C
:1015700048160020F8000020014B1868704700BF93
:101580004816002038B50446FFF7F6FF0546B4F1CB
:10159000FF3F02D0044B1B781C44FFF7EDFF401BBC
:1015A000A042FAD338BD00BFF8000020074AD36834
:1015B00023F4E0631B041B0C000200F4E0601843FA
:1015C00040F0BF6040F40030D060704700ED00E0B4
:1015D00030B4174BDB68C3F30223C3F10704042CB8
:1015E00028BF04241D1D062D18D9033B4FF0FF35DD
:1015F00005FA04F421EA0401994005FA03F322EA0A
:101600000303194300280BDB0901C9B200F1604054
:1016100000F5614080F8001330BC70470023E5E717
:1016200000F00F000901C9B2024B1954F4E700BFE2
:1016300000ED00E014ED00E0002807DB00F01F02E1
:10164000400901239340024A42F82030704700BF0E
:1016500000E100E00138B0F1807F0AD2064B58600B
:10166000064AF02182F823100020986007221A60B1
:1016700070470120704700BF10E000E000ED00E07F
:10168000F0B583B0002336E0042400E00024B44029
:101690003C4302355B4E46F825405B4C2568D443FD
:1016A00004EA05064F6817F4803F01D042EA0506B8
:1016B000554D2E606D6804EA05064F6817F4003F2B
:1016C00001D042EA0506504D6E60AD6804EA050699
:1016D0004F6817F4801F01D042EA05064A4DAE60FC
:1016E000ED682C404E6816F4001F01D042EA050454
:1016F000454AD46001330A6832FA03F47FD00124EA
:101700009C402240F6D04D686E1E012E03D9112D4B
:1017100001D0122D12D186685F000325BD4026EA54
:101720000506CD68BD4035438560466826EA040657
:101730004D68C5F300149C4034434460C5685F00A5
:101740000324BC40E44325408E68BE402E43C6605F
:101750004D68022D01D0122D13D1DE08083650F845
:1017600026E003F007054FEA850C0F2505FA0CF576
:101770002EEA050E0D6905FA0CF545EA0E0540F84E
:10178000265005682C404D6805F00305BD402C43EC
:1017900004604C6814F0805FACD01C4CA56945F027
:1017A0000105A561A46904F001040194019C9D0850
:1017B000AE1C144C54F8267003F00304A6000F244A
:1017C000B44027EA0407B0F1904F3FF45FAF104CEC
:1017D000A0420ED004F58064A0420CD004F58064D1
:1017E000A0420AD004F58064A0423FF44DAF052426
:1017F0004DE701244BE7022449E7032447E703B000
:10180000F0BD00BF00000140000401400010024094
:1018100000040048002331FA03F271D0F0B52AE049
:10182000042600E0002606FA04F4AC424FD0056816
:101830005E000324B440E44325400560DD0808351C
:1018400050F8256003F007074FEA870C0F2707FAC7
:101850000CF726EA070640F82560C5682540C560F4
:10186000456825EA020242608268144084600133C0
:1018700031FA03F243D001229A4012EA010EF6D067
:101880009F08BD1C1F4C54F8255003F00304A4000E
:101890000F2606FA04FC0CEA0505B0F1904FC1D002
:1018A000194EB0420DD006F58066B0420BD006F559
:1018B0008066B04209D006F58066B042B0D00526F9
:1018C000B1E70126AFE70226ADE70326ABE70F4CF1
:1018D00026686FEA0E052E40266066682E40666018
:1018E000A6682E40A660E6683540E560054DBC1C44
:1018F00055F8246026EA0C0645F8246097E7F0BD09
:10190000704700BF0000014000040048000401408F
:101910000AB9816270478161704703689A6912F061
:10192000020F01D000229A6203689A6912F0010F37
:1019300003D19A6942F001029A61704770B4039E24
:1019400005686868740D04F4806444F07F7444F49E
:10195000583444F47F7444F0030420EA0400C1F3D3
:10196000090141EA0241194331430143696070BCF6
:10197000704770B504460D46164603689B6913F020
:10198000100F1CD023689A6912F0200F19D1B5F1FD
:10199000FF3FF7D0FFF7F0FD801BA84201D8002DD4
:1019A000F0D1636C43F020036364202384F841305A
:1019B000002384F8423084F84030012020E00020E9
:1019C0001EE01022DA6123682025DD612046FFF742
:1019D000A4FF2268536823F0FF7323F48B3323F4AE
:1019E000FF7323F001035360636C43F004036364EB
:1019F00084F84150002384F8423084F840300120BC
:101A000070BD70B504460D46164623689B6913F0F9
:101A1000020F1DD1324629462046FFF7AAFFC8B95A
:101A2000B5F1FF3FF1D0FFF7A7FD801BA84201D819
:101A3000002DEAD1636C43F020036364202384F813
:101A40004130002384F8423084F84030012000E027
:101A5000002070BD0120FCE7F8B505460F4616468C
:101A60001C462B689B6937EA03030CBF0123002344
:101A7000B34218D1B4F1FF3FF3D0FFF77DFD069BD1
:101A8000C01AA04201D8002CEBD16B6C43F02003AC
:101A90006B64202385F84130002385F8423085F8B7
:101AA0004030012000E00020F8BD000070B582B099
:101AB000044616461D46184B00934FF08073EAB259
:101AC000FFF73CFF079A06992046FFF79AFFE8B90F
:101AD000012D0ED12368F6B29E62079B0093069BF0
:101AE000002280212046FFF7B7FF034678B101238B
:101AF0000DE02368320A9A62079A06992046FFF79A
:101B000080FF38B92368F6B29E62E6E701231846E3
:101B100002B070BD0123FAE70020008070B582B0EA
:101B2000044616461D46184B00930023EAB2FFF701
:101B300005FF079A06992046FFF763FFE8B9012DD4
:101B40000ED12368F6B29E62079B0093069B00228B
:101B500040212046FFF780FF034678B101230DE0C6
:101B60002368320A9A62079A06992046FFF749FFCE
:101B700038B92368F6B29E62E6E70123184602B040
:101B800070BD0123FAE700BF0020008070B5054654
:101B90000C4616462B689B6913F0200F1AD132466B
:101BA00021462846FFF7E5FEB0B9FFF7E5FC801BAC
:101BB000A04201D8002CEDD16B6C43F020036B6484
:101BC000202385F84130002385F8423085F84030E5
:101BD000012070BD0020FCE70120FAE7002859D061
:101BE00010B5044690F84130002B43D0242384F8EC
:101BF00041302268136823F0010313606368226890
:101C000023F0706313612268936823F400439360A8
:101C1000E368012B33D0A368226843F40443936044
:101C2000E368022B31D02268536843F0007343F419
:101C3000004353602268D36823F40043D3602369D0
:101C400062691343A169226843EA0123D360E3690F
:101C5000216A22680B4313602268136843F0010372
:101C6000136000206064202384F84130206384F8EE
:101C7000420010BD80F84030FEF776FCB6E7A3685E
:101C8000226843F400439360CAE723684FF400627C
:101C90005A60C8E701207047A8B110B50446242354
:101CA00080F841300268136823F001031360FEF7E7
:101CB00091FC0020606484F84100206384F84200B5
:101CC00084F8400010BD012070472DE9F04782B034
:101CD000BDF82C7090F84150EDB2202D40F0BA8044
:101CE0000A9CDCB1D7B190F84040012C00F0B780DD
:101CF000984691460D4604464FF0010A80F840A0F0
:101D0000FFF73AFC06460090192352464FF4004173
:101D10002046FFF7A1FE30B101239CE04FF4007391
:101D20004364012397E0212384F84130402384F861
:101D30004230002363640A9A626267856363019696
:101D40000C9B009343464A4629462046FFF7AEFEC9
:101D500070B9638D9BB2FF2B0FD9FF222285002320
:101D600000934FF0807329462046FFF7E7FD21E0FE
:101D7000002384F8403053466DE0628D92B2228594
:101D8000002300934FF00073D2B229462046FFF79C
:101D9000D5FD0FE0628D92B22285002300934FF0B3
:101DA0000073D2B229462046FFF7C8FD638D9BB26F
:101DB000002B32D032460C992046FFF722FE002835
:101DC0004FD1626A236812789A62636A0133636250
:101DD000638D013B9BB26385238D013B9BB22385C1
:101DE000628D92B2002AE1D0002BDFD100960C9BCD
:101DF000002280212046FFF72FFEA0BB638D9BB2FF
:101E0000FF2BC7D9FF222285002300934FF0807358
:101E100029462046FFF792FDC8E732460C99204636
:101E2000FFF7B4FE034600BB22682021D161206881
:101E3000426822F0FF7222F48B3222F4FF7222F009
:101E40000102426084F84110002284F8422084F8A4
:101E5000402000E00223184602B0BDE8F0870223CC
:101E6000F9E70123F7E70123F5E70123F3E7000092
:101E70002DE9F04782B0BDF82C7090F84150EDB2DA
:101E8000202D40F0BC800A9CDCB1D7B190F84040D6
:101E9000012C00F0B980984691460D4604464FF05B
:101EA000010A80F840A0FFF767FB0646009019235F
:101EB00052464FF400412046FFF7CEFD30B10123DA
:101EC0009EE04FF400734364012399E0222384F8D9
:101ED0004130402384F84230002363640A9A6262EE
:101EE0006785636301960C9B009343464A462946E7
:101EF0002046FFF713FE70B9638D9BB2FF2B0FD9FD
:101F0000FF222285444B00934FF0807329462046E0
:101F1000FFF714FD21E0002384F8403053466FE0C2
:101F2000628D92B222853C4B00934FF00073D2B287
:101F300029462046FFF702FD0FE0628D92B222850E
:101F4000002300934FF00073D2B229462046FFF7DA
:101F5000F5FC638D9BB2002B34D000960C9B0022C5
:101F600004212046FFF778FD00284FD123685A6AE4
:101F7000636A1A70636A01336362238D013B9BB20B
:101F80002385628D013A92B26285628D92B2002AF7
:101F9000DFD0002BDDD100960C9B00228021204653
:101FA000FFF75AFDA0BB638D9BB2FF2BC5D9FF2263
:101FB0002285002300934FF0807329462046FFF7C7
:101FC000BDFCC6E732460C992046FFF7DFFD03460D
:101FD00000BB22682021D1612068426822F0FF7294
:101FE00022F48B3222F4FF7222F00102426084F864
:101FF0004110002284F8422084F8402000E00223AF
:10200000184602B0BDE8F0870223F9E70123F7E79D
:102010000123F5E70123F3E70024008090F8410055
:10202000704770B512F4804F42D00468B4F8503055
:102030000D7803EBC503023304EB4303B3F800440C
:10204000C4F309048B69A34228D31B1B8B618B69E2
:102050007BB9066836F825309BB223F4804323F021
:10206000700383F4005343F4004343F0800326F8E5
:10207000253012F0400F0ED002680D7832F825306E
:102080009BB223F4E04323F0700343F4004343F096
:10209000C00322F8253024B9204670BD00238B618F
:1020A000D5E723460A894969006802F001FDF3E794
:1020B0000468B4F850300D7803EBC503063304EB25
:1020C0004303B3F80044C4F309048B69A3422ED33D
:1020D0001B1B8B618B697BB9066836F825309BB278
:1020E00023F4804323F0700383F4005343F400434C
:1020F00043F0800326F8253012F0400F0ED102681D
:102100000D7832F825309BB223F4E04323F07003BE
:1021100043F4004343F0C00322F82530002CBBD029
:1021200023464A894969006802F0C2FCB4E70023EB
:102130008B61CFE700285FD0F0B587B0044690F8F8
:10214000A9323BB1032384F8A932206801F0E7FDEE
:1021500000231FE080F8A832FEF7B8FBF2E7581C16
:1021600081000D18EA002244012555700D18EA007F
:10217000A3549D00EE18F2002244D3860144CE0001
:1021800026440021F1709163D1632B44DA0022448C
:102190001164C3B26568AB42E1D3002315E0980037
:1021A000C118CA002244002182F8691182F86831FE
:1021B00082F86B11C2F87811C2F87C11C218D000F5
:1021C0002044C0F880110133DBB29D42E7D8254698
:1021D00055F8107B6E460FCD0FC62B683360231D5C
:1021E0000ECB384601F0A5FD002084F82400012321
:1021F00084F8A93207B0F0BD0120704738B590F8D7
:10220000A832012B11D00446012580F8A85200689D
:1022100001F07CFD29462046FEF787FC206802F08D
:102220009CF8002084F8A80238BD0220FCE770B5B5
:1022300005460C46164612F0400F00F0B4800268C6
:10224000B2F85030097803EBC103023302EB4303C9
:10225000B3F80024C2F30902A36993422BD99B1A55
:10226000A361A36953B316F4804F0DD0286830F8EA
:1022700021309BB223F4E04323F0700343F4404346
:1022800043F0800320F8213094F82430012B2BD028
:102290002A68217832F821309BB223F4E04323F0FE
:1022A000400383F0300343F4004343F0800322F8FB
:1022B0002130002070BD0023A361D2E72846FEF73D
:1022C00055FB16F4804FE3D02A68217832F821308C
:1022D0009BB223F4E04323F0700343F4404343F004
:1022E000800322F82130D3E7636913446361E36913
:1022F0001344E361216A236999421BD3C91A2162FD
:102300006278002A3BD12A68B2F850100A4421783A
:1023100002EB0112D3B9B2F8041489B221F4F841E6
:1023200089B2A2F80414B2F8041441F40041A2F8EE
:10233000041426E021B9002384F824301346DFE793
:10234000002384F8243023620B46D9E73E2B09D8BA
:10235000590813F0010F00D00131890289B2A2F8A7
:1023600004140EE0590913F01F0F00D101396FEA70
:10237000C1616FEA514189B2A2F8041401E0012A57
:1023800006D09BB222896169286801F0EBFF7FE7E4
:102390002A68B2F850100A44217802EB011299B26F
:1023A000A2F80414EDE70268B2F85030097803EBA4
:1023B000C103063302EB4303B3F80024C2F309025E
:1023C000A369934240D39B1AA361A369002B3ED01B
:1023D00016F4804F0DD1286830F821309BB223F4D9
:1023E000E04323F0700343F4404343F0800320F8BC
:1023F000213094F82430012B7FF44AAF63691344F1
:102400006361E3691344E361216A2369994235D327
:10241000C91A21622A686178002954D1B2F8501093
:102420000A44217802EB0112A3BBB2F80C1489B262
:1024300021F4F84189B2A2F80C14B2F80C1441F45A
:102440000041A2F80C1440E00023A361BDE7284638
:10245000FEF78CFA16F4804F7FF41AAF2A682178C1
:1024600032F821309BB223F4E04323F0700343F4AD
:10247000404343F0800322F8213009E721B90023CB
:1024800084F824301346C5E70023236284F82430FF
:102490000B46BFE73E2B09D8590813F0010F00D0B7
:1024A0000131890289B2A2F80C140EE0590913F027
:1024B0001F0F00D101396FEAC1616FEA514189B242
:1024C000A2F80C1401E0012906D09BB2628961696F
:1024D000286801F047FFDBE6B2F850100A44217883
:1024E00002EB011299B2A2F80C14EEE72DE9F041CB
:1024F00004462068B0F8443013F4004F00F0FA812D
:10250000B0F844309BB213F00F0540F0CD8013F0CB
:10251000100F58D003889BB213F4006F40F08980ED
:1025200013F4004FE5D0038823F070031B051B0D47
:1025300043F0800303802068B0F8503094F868219D
:1025400003EBC203063300EB4303B3F80034C3F3D9
:102550000903C4F884318BB1D4F87C1171B1B4F89B
:102560006E2102F0A5FAD4F88421D4F87C3113440A
:10257000C4F87C3100212046FEF7ECF92368B3F85B
:1025800050201344D4F87821002A74D1B3F80C24D5
:1025900092B222F4F84292B2A3F80C24B3F80C24BD
:1025A00042F40042A3F80C24226813889BB223F45F
:1025B000804323F0700383F4405343F4004343F01B
:1025C0008003138095E703889BB223F4E14323F053
:1025D00070036FEA43436FEA53439BB20380226860
:1025E000B2F8503094F8281003EBC103023302EB29
:1025F0004303B3F80034C3F309036364E26B134489
:10260000E36300212046FEF7B1F994F82430002B53
:102610003FF46FAF236C002B7FF46BAF94F8243042
:10262000226843F08003A2F84C30002384F8243061
:102630005FE7B0F8503094F8682103EBC20306332B
:1026400000EB4303B3F80034C3F30903C4F8843147
:10265000B4F86E2104F52C7102F02AFA226813886E
:1026600023F070031B051B0D43F0800313802046ED
:10267000FEF768F93DE73E2A09D8510812F0010F2C
:1026800000D00131890289B2A3F80C148CE75109FA
:1026900012F01F0F00D101396FEAC1626FEA524296
:1026A00092B2A3F80C247FE730F82560B6B216F496
:1026B000004F49D116F0800F3FF41BAF681C820019
:1026C0001318D9002144276837F825309BB223F42A
:1026D000E14323F070036FEA43436FEA53439BB235
:1026E00027F82530CB78022B00F0E7802068B0F87F
:1026F00050306A1C02EB8202D600A25D03EBC203DB
:10270000023300EB4303B3F80034C3F3090305EBD2
:102710008506F20016462244126C9A4240F2D68098
:102720002644D21A326405EB8506F2002244126C6C
:10273000002A40F0D280013505EB8505EB00E15C15
:102740002046FEF713F9D4E630F8253023F0700365
:102750001B051B0D43F0800320F82530AB005A19F0
:102760004FEAC208424608F5B478A044224492F8E1
:102770007431002B3FD12068B0F8503005EB850153
:10278000CA001146224492F8682103EBC2030633C3
:1027900000EB4303B3F80074C7F3090717BBAA00A3
:1027A0002A44D3002344D3F884213A44C3F8842133
:1027B000D3F87C213A44C3F87C21D3F880313BB173
:1027C00005EB8502D3002344D3F878319F426FD2C2
:1027D00005EB8502D300234493F868112046FEF7E9
:1027E000B9F867E721443B46B1F86E21D1F87C1176
:1027F00002F05EF9D3E705EB8502D300234493F89A
:102800006B31022B34D02168AB002B44DA00224418
:1028100092F8680131F820309BB223F4E04323F0B2
:10282000700343F4004343F0C00321F820302068D4
:1028300092F8682130F8223013F4804F1FD0B0F89E
:10284000503003EBC203023300EB4303B3F80074D0
:10285000C7F30907002FA2D0AB002B44D9002144B5
:102860003B46B1F87021D1F87C1102F021F996E7CE
:10287000324641462046FFF7D4FB07468FE7B0F8C3
:10288000503003EBC203063300EB4303B3F800748C
:10289000C7F30907002F82D0AB002B44D900214495
:1028A0003B46B1F87221D1F87C1102F001F976E7CC
:1028B0004146206801F06CFDFCE616F4807F3FF491
:1028C00015AF32462046FFF7B2FC12E605EB85064F
:1028D000F20022440026166425E7AE007719FA00BC
:1028E0002244D76B1F44D763556C2B44536401F0CB
:1028F0004FFDFEE50020BDE8F08190F8A832012BE5
:102900000DD010B50446012380F8A83280F82410B9
:10291000006801F01CFD002084F8A80210BD022010
:10292000704710B50446006801F019FD10F4004F1F
:1029300045D1206801F013FD10F4806F43D1206869
:1029400001F00DFD10F4804F08D02268B2F8443039
:102950009BB223F480439BB2A2F84430206801F07C
:10296000FEFC10F4005F08D02268B2F844309BB23D
:1029700023F400539BB2A2F84430206801F0EFFC2E
:1029800010F4805F30D1206801F0E9FC10F4006F92
:1029900049D1206801F0E3FC10F4007F5ED120688B
:1029A00001F0DDFC10F4807F08D02268B2F84430DA
:1029B0009BB223F480739BB2A2F8443010BD204632
:1029C000FFF794FDB5E72268B2F844309BB223F4D8
:1029D00080639BB2A2F844302046FDF7D8FF002167
:1029E0002046FFF78AFFAAE72268B2F840309BB280
:1029F00023F004039BB2A2F840302268B2F84030C2
:102A00009BB223F008039BB2A2F840302046FDF7AA
:102A1000DFFF2268B2F844309BB223F480539BB2AC
:102A2000A2F84430AFE72268B2F8403043F0080320
:102A3000A2F840302268B2F844309BB223F400631D
:102A40009BB2A2F844302268B2F8403043F004034D
:102A5000A2F840302046FDF7ABFF9AE72268B2F8B3
:102A600044309BB223F400739BB2A2F8443020465A
:102A7000FDF787FF93E7F8B511F0800F26D101F03D
:102A80000705AE007719FC00274604F5B47404442A
:102A90000744002587F8695101F007012170226180
:102AA000E370627802B1E181022B19D090F8A8326C
:102AB000012B18D00546012380F8A8322146006872
:102AC00001F04BF9002085F8A802F8BD01F00705D8
:102AD0006E1CB500AF19FC00044401256570DBE7EE
:102AE00000232371E2E70220EFE738B511F0800FF1
:102AF00020D101F00704A2001519EB001D4603F5D3
:102B0000B47303442C460444002284F8692101F084
:102B10000701197090F8A822012A15D00446012255
:102B200080F8A8221946006801F0B0FA002084F865
:102B3000A80238BD01F00702541CA2001519EB00D1
:102B4000034401225A70E2E70220F2E7F8B501F0EF
:102B50000705AE007119CC0004F5B474011977199A
:102B6000FC000444C4F87C21C4F880310023C4F87C
:102B7000843184F8693184F8685125B1006801F026
:102B800007FC0020F8BD006801F002FCF9E701F045
:102B9000070101EB8101CB001844D0F88401704794
:102BA000F8B501F00706771CBD00EC19E1000144FF
:102BB0004FEA860CB4444FEACC040444E263236435
:102BC000012284F84C20A36400236364EC19E30021
:102BD0001C464A70065526B1006801F0D9FB00205A
:102BE000F8BD006801F0D4FBF9E738B501F007043F
:102BF00043689C4229D811F0800F1ED18A005518D5
:102C0000EB001D4603F5B47303442A460244002139
:102C100082F8691101229A701C7090F8A822012A8A
:102C200015D00446012280F8A8221946006801F058
:102C300018FB002084F8A80208E0651CAA005119BE
:102C4000CB00034401225A70E4E7012038BD022082
:102C5000FCE738B501F00F0243689A422FD811F013
:102C6000800F22D101F00704A3001D19EA001546C8
:102C700002F5B47202442C460444002384F86931FE
:102C80000023937001F00703137090F8A832012B12
:102C900017D00446012380F8A8321146006801F0DD
:102CA00005FB002084F8A8020AE001F007035C1C81
:102CB000A3001D19EA00024401235370E0E701203C
:102CC00038BD0220FCE710B411F0800F10D001F0E5
:102CD0000701013101EB8101CC0020447AB10122CE
:102CE000027303811B0C438100205DF8044B704785
:102CF00001EB8101CC0004F5B4742044EEE70273CB
:102D0000C380F1E7002800F00D8370B582B004465F
:102D1000036813F0010F3BD0B54B5B6803F00C0365
:102D2000042B1ED0B24B5B6803F00C03082B13D0AE
:102D30006368B3F5803F68D0002B40F0928003F1C8
:102D4000804303F504331A6822F480321A601A684B
:102D500022F480221A605DE0A54B5B6813F4803F8B
:102D6000E6D04FF4003393FAA3F3A14B19684FF464
:102D7000003393FAA3F3B3FA83F303F01F030122A2
:102D800002FA03F30B4203D06368002B00F0CC82FD
:102D9000236813F0020F00F0C680954B5B6813F0B8
:102DA0000C0F00F09C80924B5B6803F00C03082B27
:102DB00000F08F802369002B00F0F380012292FA4B
:102DC000A2F3B3FA83F303F1845303F584139B0056
:102DD0001A60FEF7D1FB0546022393FAA3F3844B56
:102DE0001968022393FAA3F3B3FA83F303F01F03E2
:102DF000012202FA03F30B4240F0C480FEF7BCFB51
:102E0000401B0228E8D9032095E2794A136843F46D
:102E100080331360764AD36A23F00F03A1680B4313
:102E2000D3626368002B36D0FEF7A6FB05464FF44D
:102E3000003393FAA3F36E4B19684FF4003393FAFF
:102E4000A3F3B3FA83F303F01F03012202FA03F39F
:102E50000B429DD1FEF790FB401B6428E7D903206D
:102E600069E2B3F5A02F09D0614B1A6822F48032D1
:102E70001A601A6822F480221A60CBE703F18043BB
:102E8000A3F53C331A6842F480221A601A6842F4AF
:102E900080321A60BEE7FEF76FFB05464FF4003341
:102EA00093FAA3F3524B19684FF4003393FAA3F348
:102EB000B3FA83F303F01F03012202FA03F30B4278
:102EC0003FF466AFFEF758FB401B6428E6D90320A9
:102ED00031E2474B5B6813F4803F7FF46BAF022312
:102EE00093FAA3F3424B1968022393FAA3F3B3FABC
:102EF00083F303F01F03012202FA03F30B4204D011
:102F00002369934201D0012015E23948036823F078
:102F1000F8036169F82292FAA2F2B2FA82F201FA97
:102F200002F213430360236813F0080F00F08C8053
:102F3000A369002B60D0012191FAA1F2B2FA82F2CA
:102F40002C4B13449B001960FEF716FB0546022329
:102F500093FAA3F293FAA3F293FAA3F2244A516AE2
:102F600093FAA3F3B3FA83F303F01F03012202FAE7
:102F700003F30B4268D1FEF7FFFA401B0228E6D9A3
:102F80000320D8E11A48036823F0F8036169F822A6
:102F900092FAA2F2B2FA82F201FA02F21343036049
:102FA000C1E7012393FAA3F3B3FA83F303F1845344
:102FB00003F584139B0000221A60FEF7DDFA054634
:102FC000022393FAA3F30A4B1968022393FAA3F39B
:102FD000B3FA83F303F01F03012202FA03F30B4257
:102FE000A1D0FEF7C9FA401B0228E9D90320A2E1CB
:102FF0000010024020819010012292FAA2F2B2FA4F
:1030000082F2BC4B13449B0000221A60FEF7B4FA14
:103010000546022393FAA3F293FAA3F293FAA3F2DA
:10302000B54A516A93FAA3F3B3FA83F303F01F038B
:10303000012202FA03F30B4206D0FEF79DFA401B71
:103040000228E6D9032076E1236813F0040F00F08C
:10305000B380A94BDB6913F0805F20D1A64BDA69FE
:1030600042F08052DA61DB6903F080530193019BE7
:103070000125A24B1B6813F4807F12D0E368012B5B
:1030800023D073BB03F1804303F504331A6A22F0A3
:1030900001021A621A6A22F004021A621AE000257A
:1030A000E7E7964A136843F480731360FEF764FA07
:1030B0000646924B1B6813F4807FDFD1FEF75CFA63
:1030C000801B6428F5D9032035E18B4A136A43F04D
:1030D00001031362E368002B41D0FEF74DFA064668
:1030E0002BE0052B09D0844B1A6A22F001021A62E8
:1030F0001A6A22F004021A62ECE77F4B1A6A42F065
:1031000004021A621A6A42F001021A62E2E77A4B7A
:10311000196A022393FAA3F3B3FA83F303F01F03AC
:10312000012202FA03F3194245D1FEF725FA801B6A
:1031300041F28833984200F2F980022393FAA3F215
:1031400093FAA3F3B3FA83F35B0943F00203022B70
:10315000DDD0022393FAA3F3674B596AD9E7FEF750
:103160000BFA064615E0644B196A022393FAA3F39F
:10317000B3FA83F303F01F03012202FA03F31942A7
:1031800019D0FEF7F9F9801B41F28833984200F21A
:10319000CF80022393FAA3F293FAA3F3B3FA83F353
:1031A0005B0943F00203022BDDD0022393FAA3F361
:1031B000514B596AD9E7B5BBE369002B00F0BA80DF
:1031C0004D4A526802F00C02082A00F09980022B46
:1031D0002FD04FF0807393FAA3F3B3FA83F303F184
:1031E000845303F584139B0000221A60FEF7C4F990
:1031F00004464FF0007393FAA3F33F4B19684FF066
:10320000007393FAA3F3B3FA83F303F01F030122CD
:1032100002FA03F319426BD0FEF7AEF9001B022845
:10322000E7D9032087E0344AD36923F08053D36180
:10323000C2E74FF0807393FAA3F3B3FA83F303F179
:10324000845303F584139B0000221A60FEF794F95F
:1032500005464FF0007393FAA3F3274B19684FF01C
:10326000007393FAA3F3B3FA83F303F01F0301226D
:1032700002FA03F3194206D0FEF77EF9401B02283A
:10328000E7D9032057E01C494B6823F47413626AA2
:10329000206A024313434B604FF0807393FAA3F309
:1032A000B3FA83F303F1845303F584139B000122E3
:1032B0001A60FEF761F904464FF0007393FAA3F326
:1032C0000D4B19684FF0007393FAA3F3B3FA83F32D
:1032D00003F01F03012202FA03F3194206D1FEF79D
:1032E0004BF9001B0228E7D9032024E0002022E04C
:1032F000002020E02081901000100240007000406B
:10330000012B1AD00F4B5B6803F48031226A914283
:1033100001D001200FE003F47013626A93420ED0D3
:10332000012008E001207047012004E0032002E0B2
:10333000032000E0002002B070BD0120FBE7002068
:10334000F9E700BF0010024010B4174B5C6804F0AE
:103350000C03082B26D104F470124FF4701393FA67
:10336000A3F3B3FA83F322FA03F31049C85C0E4BBC
:10337000DB6A03F00F030F2292FAA2F2B2FA82F292
:10338000D3400B441A7C14F4803F05D1084B03FB57
:1033900000F05DF8044B7047064BB3FBF2F300FB03
:1033A00003F0F6E70348F4E700100240A0600008CD
:1033B00000093D0000127A00002800F0C18070B5BD
:1033C0000446614B1B6803F007038B420CD25E4A34
:1033D000136823F007030B431360136803F007031C
:1033E0008B4201D0012070BD236813F0020F06D07C
:1033F000564A536823F0F003A068034353600D4618
:10340000236813F0010F5AD06368012B2DD0022BD3
:1034100040D0022292FAA2F24C4A1068022292FA9A
:10342000A2F2B2FA82F202F01F02012101FA02F2C4
:10343000104200F0878045494A6822F00302134396
:103440004B60FEF799F80646404B5B6803F00C03AF
:103450006268B3EB820F32D0FEF78EF8801B41F228
:1034600088339842F0D90320BDE74FF4003292FA36
:10347000A2F2364A10684FF4003292FAA2F2B2FA7F
:1034800082F202F01F02012101FA02F20242D2D1BD
:103490000120A8E74FF0007292FAA2F22B4A1068BE
:1034A0004FF0007292FAA2F2B2FA82F202F01F0218
:1034B000012101FA02F21042BDD1012093E7224B13
:1034C0001B6803F00703AB420CD91F4A136823F0B3
:1034D00007032B431360136803F00703AB4201D0CB
:1034E000012080E7236813F0040F06D0174A5368C1
:1034F00023F4E063E1680B435360236813F0080F83
:1035000007D0124A536823F46053216943EAC10388
:103510005360FFF719FF0D4B5B6803F0F003F022D7
:1035200092FAA2F2B2FA82F2D340094AD35CD840AE
:10353000084B1860084B1868FDF7DCFF002052E7C5
:103540000120704701204EE7002002400010024099
:103550007060000860000020FC000020F0B583B01F
:103560000446036813F4803F48D0934BDB6913F0A3
:10357000805F40F0D580904BDA6942F08052DA618A
:10358000DB6903F080530193019B01258B4B1B6882
:1035900013F4807F00F0C680874B1B6A13F44073DE
:1035A00022D0626802F440729A421DD08248016AB9
:1035B00021F440764FF4803393FAA3F2B2FA82F208
:1035C0007F4F3A4492004FF0010CC2F800C093FACA
:1035D000A3F3B3FA83F33B449B0000221A60066214
:1035E00011F0010F40F0B380734A136A23F4407363
:1035F00061680B431362002D40F0D580236813F0FF
:10360000010F06D06C4A136B23F00303A1680B4330
:103610001363236813F0020F06D0674A136B23F479
:103620004033E1680B431363236813F0040F06D0A3
:10363000614A136B23F4402321690B43136323680E
:1036400013F0200F06D05C4A136B23F01003E169DE
:103650000B431363236813F4003F06D0564A5368A4
:1036600023F48003A16B0B435360236813F0400FD6
:1036700006D0514A136B23F02003216A0B431363D6
:10368000236813F0080F06D04B4A136B23F4401342
:1036900061690B431363236813F0100F06D0464A89
:1036A000136B23F44003A1690B431363236813F4E2
:1036B000007F06D0404A536823F40003E16A0B43BD
:1036C0005360236813F0800F06D03B4AD36A23F47B
:1036D000F873616A0B43D362236813F4807F06D0CA
:1036E000354AD36A23F47853A16A0B43D362236823
:1036F00013F4805F06D0304A136B23F48073216B80
:103700000B431363236813F4005F53D02A4A136BEF
:1037100023F40073616B0B431363002003B0F0BD0F
:10372000002533E7254A136843F480731360FDF7DF
:1037300023FF0646214B1B6813F4807F7FF42CAFD8
:10374000FDF71AFF801B6428F4D90320E6E7FDF794
:1037500013FF064615E0184B196A022393FAA3F3E8
:10376000B3FA83F303F01F03012202FA03F30B42BF
:103770007FF43AAFFDF700FF801B41F28833984297
:1037800016D8022393FAA3F293FAA3F3B3FA83F3BE
:103790005B0943F00203022BDDD0022393FAA3F36B
:1037A000054B596AD9E7D36923F08053D36125E7E4
:1037B0000320B3E70020B1E7001002400070004092
:1037C00000819010F8B505460F4616461C462B683A
:1037D0009B6837EA03030CBF01230023B34237D0B1
:1037E000B4F1FF3FF3D0FDF7C7FE069BC01AA0421D
:1037F00001D2002CEBD12A68536823F0E003536018
:103800006B68B3F5827F0BD0AB6AB3F5005F14D061
:10381000012385F85D30002385F85C30032018E033
:10382000AB68B3F5004F02D0B3F5806FECD12A68D6
:10383000136823F040031360E6E72A68136823F453
:10384000005313602A68136843F400531360DFE7E2
:103850000020F8BDF8B507460C4615461E4602E0A6
:10386000B6F1FF3F0BD13A6893682340AB423BD09F
:10387000B4F5C06FF4D1002DF2D1137BF0E7FDF762
:103880007BFE069BC01AB04201D2002EEBD13A68F3
:10389000536823F0E00353607B68B3F5827F0BD05D
:1038A000BB6AB3F5005F14D0012387F85D300023B5
:1038B00087F85C30032018E0BB68B3F5004F02D0F6
:1038C000B3F5806FECD13A68136823F040031360BE
:1038D000E6E73A68136823F4005313603A68136804
:1038E00043F400531360DFE70020F8BD70B582B0E9
:1038F00004460D46164600920B4600224FF4C05176
:10390000FFF7A8FFB8B900962B4600228021204679
:10391000FFF758FFB8B900962B4600224FF4C0615C
:103920002046FFF797FF034650B1236E43F0200374
:103930002366032304E0236E43F02003236603235E
:10394000184602B070BD236E43F0200323660323A4
:10395000F6E7002858D010B504460023836290F89B
:103960005D30002B45D0022384F85D302268136857
:1039700023F040031360E368B3F5E06F3ED9002203
:10398000B3F5706F04D0B3F5E06F01D00021A162F0
:10399000216B21B9B3F5E06F33D902232363636848
:1039A000A1680B4321690B4361690B43A16901F4D1
:1039B00000710B43E1690B43216A0B43A06A216844
:1039C00003430B60638B03F00403616A0B43616B79
:1039D0000B43E1680B43216813434B602268D369B2
:1039E00023F40063D36100202066012384F85D3056
:1039F00010BD80F85C30FCF709FEB4E74FF480524C
:103A0000BEE701232363CAE70120704790B110B5D8
:103A10000446022380F85D300268136823F04003F7
:103A20001360FCF727FE0020206684F85D0084F810
:103A30005C0010BD012070472DE9F843DDF82080BF
:103A400090F85C40012C00F05C811D4617460E4644
:103A50000446012380F85C30FDF78EFD814694F822
:103A60005D00C0B26368012814D0B3F5827F09D02D
:103A70000223012284F85D20002284F85C2018468D
:103A8000BDE8F883A368002B40F02D81042801D005
:103A90000223EEE7002E00F02881002F00F027819E
:103AA000002D00F0268194F85D30DBB2042B02D0AB
:103AB000052384F85D30002323662764A4F846506C
:103AC000A4F84450A663E587A587E3642365E3680B
:103AD000B3F5E06F01D8012D22D92268536823F491
:103AE0008053536023681A6812F0400F03D11A689C
:103AF00042F040021A60E368B3F5E06F56D963689C
:103B00000BB1012D0AD1A26B23681288DA60A36B76
:103B10000233A363E38F013B9BB2E387012525E0DA
:103B20002268536843F480535360DBE723689A6844
:103B300012F0010F10D0B4F8462092B262B1DA68E8
:103B4000236C1A80236C02332364B4F84630013BA3
:103B50009BB2A4F846300125FDF70EFDA0EB09004D
:103B6000404503D3B8F1FF3F40F0C580E38F9BB2DF
:103B70002BB9B4F846309BB2002B00F0A780236825
:103B80009A6812F0020FD1D0E28F92B2002ACDD003
:103B9000002DCBD0A26B1288DA60A36B0233A36333
:103BA000E38F013B9BB2E3870025BFE763680BB15E
:103BB000012D0ED1E38F9BB2012B0CD9A26B236890
:103BC0001288DA60A36B0233A363E38F023B9BB2DC
:103BD000E387012547E0A26B236812781A73A36B71
:103BE0000133A363E38F013B9BB2E387F1E7E28FED
:103BF00092B2012A0BD9A26B1288DA60A36B02334E
:103C0000A363E38F023B9BB2E38700253CE0A26BFA
:103C100012781A73A36B0133A363E38F013B9BB24A
:103C2000E387002530E02268536843F480535360F3
:103C300001250CE0226C1B7B1370236C0133236481
:103C4000B4F84630013B9BB2A4F846300125FDF79D
:103C500093FCA0EB0900404502D3B8F1FF3F4CD1E3
:103C6000B8F1000F4BD0E38F9BB21BB9B4F84630CC
:103C70009BB25BB323689A6812F0020F04D0E28F04
:103C800092B20AB1002DB2D123689A6812F0010FE6
:103C9000DDD0B4F8462092B2002AD8D0B4F846203D
:103CA00092B2012AC6D9DA68236C1A80236C0233D7
:103CB0002364B4F84630023B9BB2A4F84630B4F813
:103CC00046309BB2012BAED90125C0E74A4641469A
:103CD0002046FFF70BFE034600283FF4CAAE202320
:103CE00023660123C5E60223C3E60123C1E60123BF
:103CF000BFE60123BDE60323BBE60323B9E60323A6
:103D0000B7E60223BBE690F85D0070470023A0F8F9
:103D100044304FF43F42A0F8402018467047B0F8B6
:103D2000403023F47C535B045B0CA0F8403000204F
:103D3000704784B010B402AC84E80E000123A0F8F0
:103D400040300023A0F84030A0F84430A0F85030B4
:103D500018465DF8044B04B0704730B403460A7847
:103D600030F82240A4B224F4EC4424F07004A4B24D
:103D7000C87803285BD8DFE800F04E5602520020D6
:103D800048F280052C4323F822400C7833F8242095
:103D900012B222F4E04222F07002224392B22A438D
:103DA00023F824200A7B002A40F0B1804A78002AB8
:103DB0004ED0B3F850201A440C7802EB0412CC8891
:103DC00064086400A2F800440C7833F8242012F050
:103DD000400F0CD033F8242092B222F4E04222F0BB
:103DE000700242F4004242F0C00223F82420CA7854
:103DF000012A1ED0097833F8212092B222F4E04241
:103E000022F0400282F0200242F4004242F080029E
:103E100023F8212060E044F400740020B0E744F46B
:103E2000C0640020ACE744F480640020A8E70120CF
:103E3000A6E7097833F8212092B222F4E04222F07A
:103E4000400242F4004242F0800223F8212043E085
:103E5000B3F850201A440C7802EB0412CC886408A2
:103E60006400A2F80844B3F850201A440C7802EB1E
:103E700004120C6994BBB2F80C44A4B224F4F844C4
:103E8000A4B2A2F80C44B2F80C4444F40044A2F8E2
:103E90000C440C7833F8242012F4804F0CD033F803
:103EA000242092B222F4E04222F0700242F4404216
:103EB00042F0800223F82420097833F8212092B2BE
:103EC00022F4804222F0700282F4405242F4004216
:103ED00042F0800223F8212030BC70473E2C09D8E4
:103EE000650814F0010F00D00135AD02ADB2A2F8A3
:103EF0000C54CEE7650914F01F0F00D1013D6FEAA5
:103F0000C5646FEA5444A4B2A2F80C44C1E70C782B
:103F100033F8242092B222F4E04222F0700242F4FC
:103F2000014242F0800223F82420B3F850201A44C2
:103F30000C7802EB04120C8964086400A2F80044B7
:103F4000B3F850201A440C7802EB04124C89640830
:103F50006400A2F808444A78002A40D10C7833F86B
:103F6000242012F4804F0CD033F8242092B222F493
:103F7000E04222F0700242F4404242F0800223F814
:103F800024200C7833F8242012F0400F0CD033F8A2
:103F9000242092B222F4E04222F0700242F4004265
:103FA00042F0C00223F824200D7833F8252092B285
:103FB00022F4804222F0700282F4405248F28004DF
:103FC000224323F82520097833F8212092B222F4E5
:103FD000E04222F04002224323F821207CE70C78C3
:103FE00033F8242012F4804F0CD033F8242092B2FE
:103FF00022F4E04222F0700242F4404242F0800299
:1040000023F824200C7833F8242012F0400F0CD031
:1040100033F8242092B222F4E04222F0700242F4FB
:10402000004242F0C00223F82420CA78012A1ED0A0
:104030000C7833F8242092B222F4E04222F04002BD
:1040400082F0200242F4004242F0800223F8242051
:10405000097833F8212092B222F4804222F07002D3
:1040600042F4004242F0800223F8212034E70C7829
:1040700033F8242092B222F4E04222F0400242F4CB
:10408000004242F0800223F82420E1E70B7B002B62
:1040900046D14B7813B30A7830F8223013F0400F32
:1040A0000CD030F822309BB223F4E04323F07003AD
:1040B00043F4004343F0C00320F822300A7830F87C
:1040C00022309BB223F4E04323F0400343F4004347
:1040D00043F0800320F82230002070470A7830F83F
:1040E000223013F4804F0CD030F822309BB223F4EE
:1040F000E04323F0700343F4404343F0800320F88F
:1041000022300A7830F822309BB223F4804323F027
:10411000700343F4004343F0800320F82230DBE7D0
:1041200010B44B78002B4FD10A7830F8223013F4BA
:10413000804F0CD030F822309BB223F4E04323F0C0
:10414000700343F4404343F0800320F822300A78A0
:1041500030F8223013F0400F0CD030F822309BB2F0
:1041600023F4E04323F0700343F4004343F0C0031F
:1041700020F822300A7830F822309BB223F4E04352
:1041800023F0700343F4004343F0C00320F82230CF
:104190000B7830F8232092B222F4804222F0700291
:1041A00048F28004224320F823200A7830F8223095
:1041B0009BB223F4E04323F04003234320F8223052
:1041C00000205DF8044B70470A7830F8223013F471
:1041D000804F0CD030F822309BB223F4E04323F020
:1041E000700343F4404343F0800320F822300A7800
:1041F00030F8223013F0400F0CD030F822309BB250
:1042000023F4E04323F0700343F4004343F0C0037E
:1042100020F822300A7830F822309BB223F4E043B1
:1042200023F0700343F4404343F0800320F822302E
:104230000B7830F8232092B222F4E04222F04002C0
:1042400048F28004224320F823200A7830F82230F4
:104250009BB223F4804323F07003234320F82230E1
:10426000AEE74B788BB90A7830F822309BB223F452
:10427000804323F0700383F4805343F4004343F0FE
:10428000800320F82230002070470A7830F822306E
:104290009BB223F4E04323F0400383F0100343F484
:1042A000004343F0800320F82230ECE70B7B002B27
:1042B0004BD14B7833B30A7830F8223013F0400FEB
:1042C0000CD030F822309BB223F4E04323F070038B
:1042D00043F4004343F0C00320F82230CB78012B95
:1042E00033D00A7830F822309BB223F4E04323F035
:1042F000400383F0200343F4004343F0800320F89D
:10430000223022E00A7830F8223013F4804F0CD0AB
:1043100030F822309BB223F4E04323F0700343F4DF
:10432000404343F0800320F822300A7830F82230EE
:104330009BB223F4804323F0700383F4405343F48F
:10434000004343F0800320F822300020704711B969
:104350008023A0F84C300020704700207047B0F850
:104360004400704701335B0800EB420202F58062B3
:104370006BB110B40C78487844EA002422F8044B5E
:104380000231013B002BF5D15DF8044B70477047BB
:10439000F8B54A78012A33D00B7B002B40F07C82A1
:1043A0008B690A69934240F25A829B1A8B61B0F87A
:1043B000503003440C7803EB0413002A40F053827E
:1043C000B3F80C2492B222F4F84292B2A3F80C246F
:1043D000B3F80C2442F40042A3F80C240A7830F815
:1043E00022309BB223F4804323F0700383F44053C4
:1043F00043F4004343F0800320F822300020F8BD4E
:104400008E690F69BE4200D93E460C4605460B7BBD
:104410001BB3CB78022B40D00B7830F8231011F06F
:10442000400F00F0D181002A40F0AE81B0F850205A
:10443000024402EB0313002E40F08D81B3F80C24EC
:1044400092B222F4F84292B2A3F80C24B3F80C24EE
:1044500042F40042A3F80C249EE1B6B23346CA8867
:104460004969FFF77FFFB5F850302B44227803EB02
:104470000213A3F80464227835F822309BB223F4A7
:10448000E04323F0400383F0300343F4004343F060
:10449000800325F822300020B1E70B6A9F4280F0AC
:1044A0003E810A7830F822309BB223F4E04323F0B7
:1044B000700343F4014343F0800320F822300B6A79
:1044C0009B1B0B620B7830F8232012F0400F00F09A
:1044D00093804A786ABBB0F85020024402EB031381
:1044E00076B9B3F80C2492B222F4F84292B2A3F84F
:1044F0000C24B3F80C2442F40042A3F80C241AE074
:104500003E2E09D8720816F0010F00D00132920237
:1045100092B2A3F80C240EE0720916F01F0F00D11E
:10452000013A6FEAC2626FEA524292B2A3F80C24D7
:1045300001E0012A27D0B3B2628961692846FFF7FA
:1045400011FF636933446361236A2269934223D96B
:104550009B1B23626378002B3BD1B5F850302B4472
:10456000227803EB0213DEB9B3F8042492B222F4EA
:10457000F84292B2A3F80424B3F8042442F40042AF
:10458000A3F8042427E0B0F85020024402EB031300
:10459000B2B2A3F80C24CEE7002222621E46D9E76D
:1045A0003E2E09D8720816F0010F00D00132920297
:1045B00092B2A3F804240EE0720916F01F0F00D186
:1045C000013A6FEAC2626FEA524292B2A3F804243F
:1045D00001E0012B06D0B3B2228961692846FFF7BA
:1045E000C1FE48E7B5F850302B44227803EB0213A4
:1045F000B2B2A3F80424EEE74A786ABBB0F85020C0
:10460000024402EB031376B9B3F8042492B222F405
:10461000F84292B2A3F80424B3F8042442F400420E
:10462000A3F804241AE03E2E09D8720816F0010FF0
:1046300000D00132920292B2A3F804240EE0720973
:1046400016F01F0F00D1013A6FEAC2626FEA5242C0
:1046500092B2A3F8042401E0012A27D0B3B2228940
:1046600061692846FFF77EFE636933446361236A0C
:104670002269934223D99B1B23626378002B3BD191
:10468000B5F850302B44227803EB0213DEB9B3F8AF
:104690000C2492B222F4F84292B2A3F80C24B3F89C
:1046A0000C2442F40042A3F80C2427E0B0F8502078
:1046B000024402EB0313B2B2A3F80424CEE70022B3
:1046C00022621E46D9E73E2E09D8720816F0010F65
:1046D00000D00132920292B2A3F80C240EE07209CB
:1046E00016F01F0F00D1013A6FEAC2626FEA524220
:1046F00092B2A3F80C2401E0012B06D0B3B2628978
:1047000061692846FFF72EFEB5E6B5F850302B4418
:10471000227803EB0213B2B2A3F80C24EEE7097877
:1047200030F8212092B222F4E24222F0700242F4E8
:10473000004242F0800220F82120B0F850200244CC
:10474000217802EB01129BB2A2F80434228961693C
:10475000FFF708FE8FE63E2E09D8720816F0010F0B
:1047600000D00132920292B2A3F80C2414E0720934
:1047700016F01F0F00D1013A6FEAC2626FEA52428F
:1047800092B2A3F80C2407E0B0F85020024402EBE8
:104790000313B2B2A3F80C246289B3B2616928464C
:1047A000FFF7E0FD6378002B47D1227835F82230FF
:1047B0009BB223F4E04323F0700343F4004343F03F
:1047C000C00325F8223056E66ABBB0F850200244F8
:1047D00002EB031376B9B3F8042492B222F4F84240
:1047E00092B2A3F80424B3F8042442F40042A3F8DC
:1047F000042420E03E2E09D8720816F0010F00D0E4
:104800000132920292B2A3F8042414E0720916F065
:104810001F0F00D1013A6FEAC2626FEA524292B2B0
:10482000A3F8042407E0B0F85020024402EB03137D
:10483000B2B2A3F804242289AFE7012B7FF41BAEA8
:10484000227835F822309BB223F4E04323F0700342
:1048500043F4404343F0800325F822300BE6002266
:104860008A611A46A3E53E2A09D8540812F0010FBE
:1048700000D00134A402A4B2A3F80C44AEE554095C
:1048800012F01F0F00D1013C6FEAC4646FEA544478
:10489000A4B2A3F80C44A1E5CB78022B04D0012BE1
:1048A00000F08E800120AAE5AAB9B0F85030034488
:1048B0000A7803EB02130A693ABBB3F8042492B2F4
:1048C00022F4F84292B2A3F80424B3F8042442F488
:1048D0000042A3F804244B78002B48D1B0F85030A4
:1048E00003440A7803EB02130A693ABBB3F80C24B9
:1048F00092B222F4F84292B2A3F80C24B3F80C243A
:1049000042F40042A3F80C2433E03E2A09D85408AC
:1049100012F0010F00D00134A20292B2A3F80424D5
:10492000D9E7540912F01F0F00D1013C6FEAC462AD
:104930006FEA524292B2A3F80424CCE73E2A09D887
:10494000540812F0010F00D00134A20292B2A3F871
:104950000C240EE0540912F01F0F00D1013C6FEA45
:10496000C4626FEA524292B2A3F80C2401E0012B18
:104970001CD0CB69002B3FF431AD0A7830F82230DF
:1049800044F240042340A34202D0002B7FF426AD22
:1049900030F822309BB223F4E04323F0700343F459
:1049A000004343F0C00320F8223017E5B0F8503040
:1049B00003440A7803EB02130A8AA3F80C24D8E70D
:1049C0008C690B699C4230D9E41A8C61A2B9B0F8A9
:1049D000502002440C7802EB041253BBB2F804449A
:1049E000A4B224F4F844A4B2A2F80444B2F80444F3
:1049F00044F40044A2F804444A78002A4BD1B0F8A9
:104A0000502002440C7802EB04125BBBB2F80C3469
:104A10009BB223F4F8439BB2A2F80C34B2F80C34E6
:104A200043F40043A2F80C34D8E400238B612346FE
:104A3000CCE73E2B09D85C0813F0010F00D00134FD
:104A4000A402A4B2A2F80444D6E75C0913F01F0F35
:104A500000D1013C6FEAC4646FEA5444A4B2A2F8E6
:104A60000444C9E73E2B09D85C0813F0010F00D0BD
:104A70000134A3029BB2A2F80C34AFE45C0913F03A
:104A80001F0F00D1013C6FEAC4636FEA53439BB22E
:104A9000A2F80C34A2E4012A7FF4A0ACB0F85020B4
:104AA00002440C7802EB04129BB2A2F80C3495E499
:104AB00030B45D0800EB420202F5806207E032F894
:104AC000044BA4B20C70240A4C700231013D002D3D
:104AD000F5D113F0010F01D013880B7030BC704773
:104AE00010B5D0F8B842D0F8BC325BB194F80002EF
:104AF000FF2807D09B6894F8012221469847FF239E
:104B000084F80032002010BD432303800048704722
:104B10000001002043230380004870474401002027
:104B20004323038000487047880100200A23038044
:104B300000487047CC01002038B50446D0F8B85280
:104B4000FBF7E8FFC5F80C02D4F8B8324BB1D4F843
:104B5000BC32DB6805F50371D5F8040298470020E4
:104B600038BD0220FCE770B5D0F8B822D0F8C052AA
:104B7000FAB101EB8104A3000344DB694BB101EB03
:104B80008106F4002544AD6BB3FBF5F405FB14334B
:104B90001BB10020C2F8140270BD01EB810293002A
:104BA00003440024DC6123462246FBF7A3FF204692
:104BB000F2E70220F0E770B582B005460C46D0F867
:104BC000B86200238DF80730ADF804300B7813F08D
:104BD000600227D0202A56D1CA883AB9D0F8BC3210
:104BE0009B6800224878984700204FE013F0800F20
:104BF0000CD0D0F8BC329B68314660789847E28888
:104C00003146284600F0AEFD00203FE04B7886F8A4
:104C100000328B7986F80132CA88314600F0B7FD40
:104C2000002033E04B780A2B14D00B2B21D01BB182
:104C300000F077FA022029E090F89C32032B05D18E
:104C4000022201A900F08EFD00201FE000F069FAA9
:104C500002201BE090F89C32032B06D101220DF1BB
:104C6000070100F07FFD002010E000F05AFA02205A
:104C70000CE090F89C32032B01D1002006E000F0FC
:104C800050FA022002E000F04CFA022002B070BD9F
:104C900038B504468121FBF7F6FE0025E5620121C7
:104CA0002046FBF7F0FEC4F86C5182212046FBF74A
:104CB000EAFE2564D4F8B8324BB1D4F8BC325B6854
:104CC0009847D4F8B802FBF72FFFC4F8B852002079
:104CD00038BD38B50446037CA3BB4FF400730222F1
:104CE0008121FBF7C5FE0125E5624FF40073022226
:104CF00029462046FBF7BCFEC4F86C51082303226A
:104D000082212046FBF7B4FE012323644FF4077091
:104D1000FBF706FF0546C4F8B80268B3D4F8BC3206
:104D20001B6898470023C5F81432C5F81832237C55
:104D3000C3B14023D5F8042201212046FBF7E2FE4F
:104D4000002038BD402302228121FBF791FE01257E
:104D5000E5624023022229462046FBF789FEC4F87B
:104D60006C51CBE74FF40073D5F8042201212046A3
:104D7000FBF7C8FE0020E4E70120E2E719B1C0F824
:104D8000BC120020704702207047D0F8B832C3F838
:104D90000812C3F8102200207047D0F8B832C3F8C8
:104DA000041200207047D0F8B822A2B108B5D2F89A
:104DB00014320BB1012008BD0123C2F81432D2F81D
:104DC00010320363B2F81032D2F808228121FBF7C7
:104DD00091FE0020EFE702207047D0F8B8229AB188
:104DE00008B5037C3BB14023D2F804220121FBF734
:104DF00089FE002008BD4FF40073D2F8042201217F
:104E0000FBF780FE0020F5E70220704798B108B557
:104E10000346D0F8B40210B10020C3F8B40209B1BF
:104E2000C3F8B0121846012380F89C320270FBF7D9
:104E3000D5FD002008BD0220704719B1C0F8B4129A
:104E4000002070470220704708B5FBF709FE0020DC
:104E500008BD08B5D0F8B43233B11B68984708B91B
:104E6000002008BD0220FCE70220FAE708B5D0F8D0
:104E7000B4325B689847002008BD38B5044600F599
:104E80002A75284600F039F90123C4F89432B4F8A1
:104E9000AE32C4F8983294F8A81201F01F03012B27
:104EA0000ED03BB1022B10D001F080012046FBF761
:104EB000F2FD03E02946204600F0CDFA002038BD7F
:104EC0002946204600F0FBFAF8E72946204600F084
:104ED00026FBF3E738B50446A1BB1046D4F894325C
:104EE000032B03D0052B24D0002037E0D4F8603109
:104EF000D4F8642193420DD99B1AC4F860319A42C8
:104F000006D99AB20146204600F050FC002025E068
:104F100092B2F7E7D4F8B4321B692BB194F89C2213
:104F2000032A01D120469847204600F047FC002084
:104F300014E00025C4F8945229462046FBF7ABFD47
:104F400028460BE00A46D0F8B4329B693BB190F892
:104F50009C12032905D111469847002038BD022034
:104F6000FCE70220FAE710B50446002953D11046A9
:104F7000D4F89432022B0CD0042B00D01BB9802122
:104F80002046FBF788FD94F8A032012B3FD000208B
:104F90004DE0236A626A93421DD8E169B1FBF2F3E6
:104FA00002FB13132BB98A4203D8D4F898329942E2
:104FB0001FD3D4F8B432DB682BB194F89C22032AB7
:104FC00001D12046984780212046FBF764FD20460A
:104FD00000F0FFFBD7E79A1A226292B20146204600
:104FE00000F0CDFB00231A4619462046FBF78AFD48
:104FF000C9E700221146204600F0C1FB0021C4F899
:1050000098120B460A462046FBF77CFDBBE70020C2
:1050100084F8A0020BE00A46D0F8B4325B693BB1D9
:1050200090F89C12032905D111469847002010BD25
:105030000220FCE70220FAE770B504464023002274
:105040001146FBF715FD0125C4F858514026C4F858
:1050500064613346002280212046FBF709FDA561EB
:10506000666284F89C520023C4F894326360C4F8EA
:10507000A432D4F8B8322BB1D4F8B4325B68002132
:1050800020469847002070BD01740020704790F8BA
:105090009C3280F89D32042380F89C3200207047B7
:1050A00090F89C32042B01D00020704790F89D327C
:1050B00080F89C32F8E708B590F89C32032B01D0B9
:1050C000002008BDD0F8B432DB69002BF8D0984737
:1050D000F6E7002302E00133DBB201300278002A58
:1050E000F9D11846704708B54B88012B00D008BD90
:1050F000C0F8A43200F062FBF9E70B7803704B783C
:1051000043708B78CA7803EB022343800B794A798A
:1051100003EB022383808B79CA7903EB0223C380DC
:10512000704710B504468021FBF7B5FC00212046EE
:10513000FBF7B1FC10BD30B583B005460C4600232B
:10514000ADF806304A88130A013B062B00F2A48012
:10515000DFE803F004182CA2A2869300D0F8B03246
:105160001B680DF10601007C9847BDF806201AB1B6
:10517000E388002B40F09480E388002B00F09A80B5
:1051800003B030BD037C43B9D0F8B4329B6A0DF153
:105190000600984702234370E7E7D0F8B432DB6A91
:1051A0000DF10600984702234370DEE7D2B2052ACC
:1051B00052D8DFE802F003101D2A3744D0F8B0328D
:1051C0005B6823B10DF10601007C9847CDE72146CD
:1051D000FFF7A7FFD4E7D0F8B0329B6823B10DF1F9
:1051E0000601007C9847C0E72146FFF79AFFC7E712
:1051F000D0F8B032DB6823B10DF10601007C98478E
:10520000B3E72146FFF78DFFBAE7D0F8B0321B694C
:1052100023B10DF10601007C9847A6E72146FFF770
:1052200080FFADE7D0F8B0325B6923B10DF1060124
:10523000007C984799E72146FFF773FFA0E7D0F875
:10524000B0329B6923B10DF10601007C98478CE7D1
:105250002146FFF766FF93E72146FFF762FF8FE7DE
:10526000037C33B9D0F8B4325B6B0DF1060098477C
:105270007BE72146FFF755FF82E7037C43B9D0F86F
:10528000B4321B6B0DF106009847072343706CE79F
:105290002146FFF746FF73E72146FFF742FF6FE71E
:1052A0009A4228BF1A46ADF806200146284600F06B
:1052B00059FA61E7284600F081FA61E738B50446FB
:1052C0008B88F3B9CB88E3B94B887F2B19D803F0CF
:1052D0007F0590F89C32032B0CD080F89E52294613
:1052E000FBF700FC204600F069FA35B1022384F890
:1052F0009C3209E0FFF715FF06E0012384F89C3299
:1053000002E02046FFF70DFF38BD000038B5044627
:105310000D468978284B197001290ED890F89C32D7
:10532000022B0ED0032B21D02946FFF7FAFE224B89
:1053300019782046FFF79AFD02E02946FFF7F1FEB3
:1053400038BD81B14160032380F89C32FFF781FDB5
:10535000022803D0204600F031FAF1E72946204622
:10536000FFF7DFFEECE700F029FAE9E789B14368CF
:1053700099421DD0D9B2FFF779FD0F4B19786160C2
:105380002046FFF766FD02280DD0204600F016FAF1
:10539000D6E7022380F89C324160FFF767FD204684
:1053A00000F00CFACCE729462046FFF7BAFEC7E723
:1053B00000F004FAC4E700BF7405002008B5CB88EC
:1053C000012B0BD190F89C329BB1022B09D9032BF6
:1053D0000FD10122011D00F0C5F901E0FFF7A1FE88
:1053E00008BD0146002341F8083F012200F0BAF948
:1053F000F6E7FFF796FEF3E708B590F89C32013B1D
:10540000022B12D8CB88022B0CD10123C360D0F819
:10541000A4320BB10323C360022200F10C0100F09F
:10542000A1F908BDFFF77DFEFBE7FFF77AFEF8E77D
:1054300008B590F89C32013B022B09D84B88012B10
:1054400000D008BD0023C0F8A43200F0B7F9F8E797
:10545000FFF767FEF5E708B50B7803F06003202B34
:1054600005D0402B03D043B1FFF75BFE03E0D0F83B
:10547000B4329B689847002008BD4B78092B1BD895
:10548000DFE803F011171A141A08051A0E0BFFF7BC
:1054900052FEF0E7FFF712FFEDE7FFF737FFEAE70D
:1054A000FFF78CFFE7E7FFF7A7FFE4E7FFF71BFE37
:1054B000E1E7FFF7BDFFDEE7FFF733FEDBE738B5D7
:1054C00005460C460B7803F06003202B06D0402BDA
:1054D00004D01BB1FFF725FE002038BD95F89C32A3
:1054E000013B022B16D82379012B0ED8D5F8B43204
:1054F0009B68214628469847E388002BECD100287A
:10550000EAD1284600F05AF9E6E721462846FFF797
:1055100008FEE1E721462846FFF703FEDCE738B541
:1055200004468A880B7803F06003202B08D0D0B2A1
:10553000402B05D05BB12046FFF7F3FD002005E0CE
:10554000D4F8B4329B6820469847002038BD202B01
:1055500005D1D4F8B4329B6820469847F6E74B78DB
:10556000012B32D0002B5ED0032B40F0D88094F872
:105570009C32022B06D0032B16D02046FFF7D1FD1C
:105580000020E3E708B1802804D12046FFF7C9FDD9
:105590000020DBE701462046FBF77DFA802120460C
:1055A000FBF779FA0020D1E74B8823B918B180289E
:1055B00001D0CB8823B1204600F000F90020C5E7D8
:1055C00001462046FBF767FAF5E794F89C32022B78
:1055D00006D0032B16D02046FFF7A3FD0020B5E729
:1055E00008B1802804D12046FFF79BFD0020ADE7DD
:1055F00001462046FBF74FFA80212046FBF74BFA85
:105600000020A3E74B88002B40F08E8010F07F0F26
:1056100004D1204600F0D2F8002097E7014620464A
:10562000FBF741FAF5E794F89C32022B06D0032BE6
:105630002AD02046FFF775FD002087E708B18028B3
:1056400013D112F0800F15D100F07F0000EB800025
:10565000830003F5A8712144043100250D60022266
:10566000204600F07FF8284670E72046FFF759FDF6
:1056700000206BE700F07F0000EB8000830003F167
:10568000100121440431E8E752B2002A1FDB00F088
:105690000F0303EB83039D002544D5F8583123B352
:1056A000002A27DB00F07F0202EB8202930003F561
:1056B000A8752544043508B1802825D100232B6026
:1056C00002222946204600F04DF800203EE700F077
:1056D0000F0303EB83039D002544AB69002BDFD14F
:1056E0002046FFF71EFD002030E72046FFF719FD9A
:1056F00000202BE700F07F0202EB8202930003F10F
:10570000100525440435D6E701462046FBF7D3F9BA
:1057100010B101232B60D3E700232B60D0E7204694
:10572000FFF7FFFC002011E700200FE7C8B170B5BC
:105730000D4616460446FFF7CCFC01304000308091
:10574000287003236B70022307E001345A1CD2B285
:10575000E9540233DBB20021A95421780029F4D1A5
:1057600070BD704710B513460222C0F89422C36181
:1057700003620A460021FBF7BDF9002010BD08B501
:1057800013460A460021FBF7B5F9002008BD10B505
:1057900013460322C0F89422C0F85C31C0F860318F
:1057A0000A460021FBF7AEF9002010BD08B51346EC
:1057B0000A460021FBF7A6F9002008BD08B504231E
:1057C000C0F8943200231A461946FBF793F90020DB
:1057D00008BD08B50523C0F8943200231A461946BF
:1057E000FBF790F9002008BD014B1868704700BF17
:1057F0001002002070B50D4E0D4CA41BA410002506
:10580000A54209D10B4E0C4C00F026FCA41BA410A1
:105810000025A54205D170BD56F8253098470135C1
:10582000EEE756F8253098470135F2E77461000835
:10583000746100087461000878610008024403463E
:10584000934200D1704703F8011BF9E70EB400B58D
:105850009CB01DAB029006906FF000410948079183
:105860000491094953F8042B05910068019302A99A
:1058700000F066F8029B00221A701CB05DF804EB81
:1058800003B07047100200200802FFFF2DE9F04727
:105890008E689E4282460C469046994637D88A8941
:1058A00012F4906F31D0256809696F1A6569022377
:1058B00005EB450595FBF3F509F101033B449D42DA
:1058C00038BF1D46530530D5294600F02BFB064650
:1058D00050B90C23CAF80030A38943F04003A381D8
:1058E0004FF0FF30BDE8F0873A46216900F0A8FA92
:1058F000A38923F4906343F08003A381266165614B
:105900003E44ED1B2660A5604E464E4500D94E46EE
:1059100032464146206800F09EFAA3689B1BA360B4
:1059200023681E4426600020DCE72A4600F054FB72
:1059300006460028E2D12169504600F0A5FAC8E7E2
:105940002DE9F04F1D468B891F069DB080460C4601
:1059500016460FD50B696BB9402100F0E3FA2060C1
:10596000206128B90C23C8F800304FF0FF30C8E0A0
:10597000402363610023099320238DF829303023CD
:105980008DF82A3003954FF0010B37463D4615F848
:10599000013B0BB1252B3ED1B7EB060A0BD053468A
:1059A000324621464046FFF771FF013000F0A480E7
:1059B000099B534409933B78002B00F09D80002302
:1059C0004FF0FF32CDE90523049307938DF8533050
:1059D0001A932F46052217F8011B5048FAF7F8FBD7
:1059E000049BD0B9D90644BF20228DF853201A0752
:1059F00044BF2B228DF853202A782A2A15D0079AE3
:105A00002F4600200A25394611F8013B303B092B6F
:105A10004DD9B8B10FE02F46B8E7404A801A0BFACB
:105A200000F0184304903D46D3E7039A111D126815
:105A30000391002A01DB079204E0524243F0020383
:105A4000079204933B782E2B0CD17B782A2B33D1F1
:105A5000039B1A1D1B680392002BB8BF4FF0FF3346
:105A6000023705932E4D397803222846FAF7B0FB0A
:105A700038B14023401B03FA00F0049B0343013775
:105A80000493397827488DF8281006227E1CFAF7EF
:105A90009FFB002838D0244B13BB039B073323F014
:105AA000070308330393099B4B4409936DE705FBF8
:105AB000023201200F46A6E700230137059319465D
:105AC0000A25384610F8012B303A092A03D9002B51
:105AD000C8D00591C6E705FB012101230746F0E781
